:1000000078240020190100001501000015010000EE
:1000100000000000000000000000000000000000E0
:1000200000000000000000000000000015010000BA
:100030000000000000000000150100001501000094
:100040001501000015010000150100001501000058
:100050002D0300001501000015010000150100002E
:100060001501000015010000150100001501000038
:100070001501000015010000150100001501000028
:100080001501000015010000150100001501000018
:100090001501000015010000150100001501000008
:1000A00015010000150100001501000015010000F8
:1000B0000000000010B5064C2378002B07D1054B3B
:1000C000002B02D0044800E000BF0123237010BDC4
:1000D000340400200000000040050000084B10B56B
:1000E000002B03D00749084800E000BF0748036819
:1000F000002B00D110BD064B002BFBD09847F9E731
:100100000000000038040020400500004005000009
:1001100000000000FEE70000F8B52A4A2A4B9A4288
:1001200011D01A00294B9A420DD2294A03339B1A47
:100130009B0801339B000022234822498C5884509D
:1001400004329A42FAD1234A234B9A420AD2D34329
:1001500021495B1803218B4304339B18002102C201
:100160009342FCD11D4AFF211D4B8B439360FD3907
:1001700090235B001B4AD1501B4AD3780325AB4325
:1001800002242343D370D3780C27BB430826334380
:10019000D370164B987B30229043202210439873E3
:1001A000997BB943314399739A7BAA4322439A734B
:1001B0000F4A536880210B4353600E4B98470E4BF8
:1001C0009847FEE7400500000000002034040020AE
:1001D00004000020340400207404002000ED00E03E
:1001E0000000000000700041005000410048004144
:1001F00000400041790300000D020000014A024B5B
:100200001A60704740420F000000002010B52E4BCE
:1002100098478022D2052D4B1A602D4A2D4B1A602B
:100220000222FF322C4B1A602C4A2D4B1A602D4AA9
:100230002D4B1A802D4A116880235B000B431360FD
:100240002B4A136802210B4313602A4B9A6852060B
:10025000FCD4294A294B1A60264B9A681206FCD412
:100260000022274B1A60234B9A68D205FCD4214AFE
:10027000136802210B43136013009A689207FCD4A1
:10028000204A214B1A6080221202204B1A6020491A
:10029000114B19601F49124B19601F49124B1980ED
:1002A0001E490868A0231B0603430B601C4B1A6001
:1002B00002221C4B1A701A005378DB09FCD1102261
:1002C000194B1A60FEE7C046FD010000884400415A
:1002D000004001D4A8440041080C00400106010080
:1002E000040C00401A410000020C004020040040B1
:1002F0003C200042002000427017000040200042D5
:100300004420004200800740284400411844004136
:100310000202000002060100054200001C18004015
:100320000C1800400018004000E100E00E4B1B7864
:10033000FA22D20053430D4A13600D4A9368DB053D
:10034000FCD4094B1B78DBB2022B07D90022064BE9
:100350001A7080221202074B1A607047024A137803
:100360000133DBB21370F4E70400002044200042A4
:10037000002000421018004070B50D4E0D4D0024B5
:10038000AD1BAD1005D0A300F35801349847A5422A
:10039000F9D100F0C3F8084E084D0024AD1BAD1094
:1003A00005D0A300F35801349847A542F9D170BD98
:1003B0002805000028050000280500003005000081
:1003C000034B10B5002B02D0024800F005F810BD19
:1003D00000000000E903000010B501000023002226
:1003E000002000F01FF810BD70B5094B094CE41A4D
:1003F000A41009D0084AA518AD00ED182B68013CDF
:100400009847043D002CF9D100F092F870BDC04629
:100410003C05000040050000FFFFFF3F7047C0465D
:100420007047C046F0B54E464546DE465746E0B5F5
:10043000364D83B00600286898460F009146FFF7B6
:10044000EDFF334B1C68A4235B00E058002852D01A
:1004500043681F2B13DC5A1C0192002E28D1019AED
:1004600002339B0042601F502868FFF7D9FF00202D
:1004700003B03CBC90469946A246AB46F0BD254B26
:10048000002B3DD0C820400000E000BF002837D03E
:10049000A42200235200A15843600160A0504032C2
:1004A000835004328350013301930023002ED6D0B1
:1004B0009A00924682444A46882154466250C42299
:1004C0005200914681444A468739994012688B46CA
:1004D0000A4394464A4661461160842241465200CE
:1004E000A150022EBBD102005C468D32FF32116852
:1004F0000C431460B3E720004D30FF30E050A7E715
:100500002868FFF78DFF01204042B1E7300400204A
:10051000180500000000000008000020F8B5C046E3
:10052000F8BC08BC9E467047C1030000DD00000017
:10053000F8B5C046F8BC08BC9E467047B500000040
:1005400040420F000100000000000000F402002003
:100550005C030020C4030020000000000000000035
:10056000000000000000000000000000000000008B
:10057000000000000000000000000000000000007B
:10058000000000000000000000000000000000006B
:10059000000000000000000000000000000000005B
:1005A000000000000000000000000000000000004B
:1005B000000000000000000000000000000000003B
:1005C000000000000000000000000000000000002B
:1005D000000000000000000000000000000000001B
:1005E000000000000000000000000000000000000B
:1005F00001000000000000000E33CDAB34126DE6A8
:10060000ECDE05000B000000000000000000000010
:1006100000000000000000000000000000000000DA
:1006200000000000000000000000000000000000CA
:1006300000000000000000000000000000000000BA
:1006400000000000000000000000000000000000AA
:04097000500400200F
:00000001FF
